:1000000009C016C015C014C013C012C011C010C062
:100010000FC00EC011241FBECFE9CDBF20E0A0E667
:10002000B0E001C01D92A837B207E1F7D9D013C1E3
:10003000E7CF80E090E0FC01E05AFF4F128210828F
:100040001182039688319105B1F708951F93CF93DC
:10005000DF93C0E6D0E012E31A871F8368E070E008
:10006000CE01BBD02FEF85EA9EE02150804090402A
:10007000E1F700C000001D871C8319871E8368E01C
:1000800070E0CE01AAD02FEF85EA9EE0215080409B
:100090009040E1F700C00000188B19831C871B8378
:1000A0001A861F8268E070E0CE0197D02FEF8BE4B4
:1000B0009DE1215080409040E1F700C000008AEFB0
:1000C0008F8B8C8B68E070E0CE01DF91CF911F9118
:1000D00084C0C49A2FEF8BED95E021508040904072
:1000E000E1F700C00000C4980895C49A2FEF8DEE88
:1000F00092E0215080409040E1F700C00000C49899
:100100000895C39A2FEF82E597E0215080409040F8
:10011000E1F700C00000C3980895C49A2FEF85EA64
:100120009EE0215080409040E1F700C00000C4985C
:100130002FEF85EA9EE0215080409040E1F700C01B
:1001400000000895FC0187B3842B87BB88B3242F5C
:100150002095282398B3942B3FB7F8941EC0819123
:1001600048E098BB000087FF28BB880F00C000C094
:1001700028BB000000C000C000C000C000C000C01C
:1001800000C000C000C000C000C000C000C000C06F
:1001900000C04A9531F7615070406115710509F052
:1001A000DECF3FBF089542E0CDDF0895660F771F91
:1001B000660F771F42E0C6DF80EC90E00197F1F711
:1001C00008959C01CB0163E070E034D0BC01C9010B
:1001D000B9DF80EA8A95F1F7089542E0F2DF0895E9
:1001E00087B3886187BB88B3877E88BB22DF7DDFCA
:1001F0002FEF8DEE92E0215080409040E1F700C05B
:10020000000073DF23DF65DF2FEF8BED95E02150DA
:1002100080409040E1F700C000005BDF2FEF85EAEF
:100220009EE0215080409040E1F700C0000069DF6F
:1002300074DFFECF0024552704C0080E591F880F15
:10024000991F009729F076956795B8F37105B9F76E
:0A025000802D952F0895F894FFCF3C
:00000001FF
